:400000000010002011000000850500008505000080B500AF00F0BAFA80B584B000AF021CFB1D1A70204A3B1C0B3312781A701F4A3B1C0A3312781A700423013BFB6018E031
:400040001B4B1868391C0B31FA68131C5B009B18C3185B780B70164B1868391C0A31FA68131C5B009B18C3189B780B70FB68013BFB60FB68002B0ADB0D4B1968FA68131CF1
:400080005B009B185B5CFA1D12789A42D8D9094B3A1C0B3212781A60074B3A1C0A3212781A60BD4604B080BDCCF1FF0FCDF1FF0FCC0000201CFF0B4020FF0B4080B500AF4F
:4000C0001F4B1F4A12688021C9020A431A601820FFF7A2FF1B4B19221A60052000F0D8FC194B1A4A1278D2B21A60052000F0B8FD134B134A1168164A0A401A60154B164A7B
:400100001A60164B30221A60154B10221A60154B20221A60144B11221A60144B802212061A60134B134A1A60134B124A1A60134B134A1A60134B144A1A60BD4680BDC04637
:4001400000010B402CFF0B4028FF0B40E5F1FF0FFFFFFBFF04010B40060000800802024020020240240202403002024008010B40000002401700008040000240800002409C
:4001800022000080040002403300008080B582B000AF72B6FB1D00221A7023E0FB1D1A78131C5B009B185B00474A9B183B603B681A78597809020A43997809040A43DB7862
:4001C0001B0613431A1C3B6819795B791B020B439BB2101C191C00F057FAFB1D1A78FB1D01321A70FB1D1B78012BD7D9374A384B101C191C00F058FA364B802252001A8033
:40020000354B01221A70354BC02292031A60344BEE2212021A60334B90221A60324B20221A60324BC42292021A60314BC02252031A60304B304A1A60304B02221A60304B7F
:4002400030221A602F4B02221A602F4B992212041A602E4B802292041A602D4B8022D2041A602C4B992212041A602B4B2B4A1A602B4B2C4A1A602C4B2C4A1A602C4B2D4A5E
:400280001A602D4B2C4A1278D2B202210A43D2B21A702A4B294A1278D2B20C218A43D2B204210A43D2B21A70234B234A1278D2B216210A43D2B21A70FFF700FF00F034FAC8
:4002C000BD4602B080BDC0462C0E0000380E0000580E000000600F4002600F40000001400C0001401000014000000440080004400801044008030440811D000000040440CF
:40030000080404401804044000500F4004500F4008500F4010500F4030500F400400990034500F40000002022001054012220200600105401666060000700F4001700F40EF
:4003400010B5064C2378002B07D1054B002B02D0044800E000BF0123237010BDE000002000000000240E000008B5084B002B03D00748084900E000BF07480368002B03D0D5
:40038000064B002B00D0984708BDC04600000000240E0000E4000020C80000200000000080B582B000AF00F0E9F900F083FC00F0A1FA00F019FBFE20642100F097F862B609
:4003C00000F0C6FA021CBB1D1A80BB1D1A881F4B9A4212D9BB1D1A88FA23DB009A420CD8042000F019FCBB1D1B880220191C00F031F8012000F09CF902E0002000F098F9A3
:4004000000F020FB021C3B1D1A803B1D1A880F4B9A4219D93B1D1A88FA23DB009A4213D83B1D1B880A4A9B189BB2391D1A1C9218D3180B80042000F0EFFB3B1D1B880120B1
:40044000191C00F007F8BBE7BAE7C046E703000018FCFFFF80B586B000AF0A1CFB1D011C19703B1D1A803B1C0C33FF221A703B1C0C33FF225A703B1C0C33FA1D12789A7020
:400480003B1C0C330522DA703B1C0C3303221A713B1C0C331E225A713B1D1B88DAB23B1C0C339A713B1D1B881B0A9BB2DAB23B1C0C33DA713B1C0C339A79FB1D1B78D3180D
:4004C000DAB23B1C0C33DB79D318DBB22633DBB2DB43DAB23B1C0C331A723B1C0C33181C092100F0A7F9BD4606B080BD80B586B000AF0A1CFB1D011C19703B1D1A803B1C9B
:400500000C33FF221A703B1C0C33FF225A703B1C0C33FA1D12789A703B1C0C330522DA703B1C0C3303221A713B1C0C3320225A713B1D1B88DAB23B1C0C339A713B1D1B88FC
:400540001B0A9BB2DAB23B1C0C33DA713B1C0C339A79FB1D1B78D318DAB23B1C0C33DB79D318DBB22833DBB2DB43DAB23B1C0C331A723B1C0C33181C092100F05BF9BD4680
:4005800006B080BD80B500AFFEE7C04680B586B000AF224B7B61224B3B61204B7B6135E03B691B68FB603B695B68BB603B699B683B6000237B600CE0FB681A68BB681A60FF
:4005C000BB680433BB60FB680433FB607B6804337B607A683B689A42EED13B69DB683B6000237B6008E0BB6800221A60BB680433BB607B6804337B607A683B689A42F2D1C7
:400600003B6910333B617B69013B7B617B69002BC6D100F0D9FBFFF7C3FEFEE701000000BC0F000080B582B000AF00237B600FE07B68032B04D8104B7A689200D35800E09F
:400640000E4B0F4A796889008B507B6801337B607B682F2BECD9FFF799FD0A4B00221A608023DB058022D205126801210A431A60BD4602B080BDC046000000008505000031
:4006800000000020C000002080B582B000AF786039607A683B68101C00211A1C00F0BAFBBD4602B080BDC04680B586B000AF7860396000233B6100237B612EE07B699B0038
:4006C0007A68D3181B68BB603B1C0F33BA681A70BB68FF229343BB6017E03B695B003A68D3181B781A1CBB68D3183A69520039688A1852781A703B6901333B613B1C0F3322
:400700001A783B1C0F33013A1A703B1C0F331B78002BE2D17B6901337B617B69072BCDD9BD4606B080BDC04680B500AFBD4680BD80B584B000AF021CFB1D1A700E4B1B683B
:40074000DAB23B1C0F3340218A431A70FB1D1B789B01DAB240231340D9B23B1C0F333A1C0F3212780A431A70034B3A1C0F3212781A60BD4604B080BD0001044080B500AFF1
:40078000064B1B78002B04D100F00AF8034B01221A7000F019F8BD4680BDC046FC00002080B500AF054B07221A70054B48221A70044B00221A70BD4680BDC04621000F4029
:4007C00031000F4080000F4090B583B000AFFC1D00F068F9031C2370084B084A1278D2B210210A43D2B21A7000F044F9FB1D1B78181C00F05BF9BD4603B090BD90000F40F6
:4008000080B582B000AF021CFB1D1A70C046074B1B78DBB21A1C04231340F8D1044BFA1D12781A70BD4602B080BDC04660000F4040000F4080B584B000AF78600A1CFB1C14
:400840001A703B1C0F3300221A700F4B1B78002B16D03B1C0F331B787A68D3181B78181CFFF7CEFF3B1C0F331A783B1C0F3301321A703A1C0F32FB1C12781B789A42E8D345
:40088000BD4604B080BDC046FC00002080B500AF094B802292041A60084B4D221A60022000F062F8064B181C00F044F8002000F033F8BD4680BDC0460001054024010540AE
:4008C000FFFF000090B583B000AFFC1D00F0EAF8031C2370064B064A126801210A431A60FB1D1B78181C00F0E1F8BD4603B090BD0000054080B500AF064B1B78002B04D17A
:40090000FFF7C4FF034B01221A70FFF7DBFFBD4680BDC046FE00002080B582B000AF7860034B7A681204120C1A60BD4602B080BD0801054080B582B000AF7860034B7A68A5
:400940001204120C1A60BD4602B080BD1401054080B500AF034B1B681B041B0C181CBD4680BDC0460C01054080B582B000AF7860024B7A681A60BD4602B080BD38010540AF
:4009800080B500AF094B802292041A60084B4D221A60022000F062F8064B181C00F044F8002000F033F8BD4680BDC0464001054064010540FFFF000090B583B000AFFC1D05
:4009C00000F070F8031C2370064B064A126802210A431A60FB1D1B78181C00F067F8BD4603B090BD0000054080B500AF064B1B78002B04D1FFF7C4FF034B01221A70FFF700
:400A0000DBFFBD4680BDC046FF00002080B582B000AF7860034B7A681204120C1A60BD4602B080BD4801054080B582B000AF7860034B7A681204120C1A60BD4602B080BD6D
:400A40005401054080B500AF034B1B681B041B0C181CBD4680BDC0464C01054080B582B000AF7860024B7A681A60BD4602B080BD7801054080B500AF044B044A12688021F2
:400A800009060A431A60BD4680BDC046040002400230800804D0C0460138FDD1C046C046C0467047EFF3108072B6704780F310887047C046C046C04680B584B000AF021C15
:400AC0003960FB1D1A7080239B05FB60FB1D1B781F2B02D9002000F095F8FB1D1B7810339B00FA68D3181B68BB60FB1D1B7810339B00FA68D3183A681A60BB68181CBD46F0
:400B000004B080BD90B587B000AF0A1CFB1D011C1970BB1D1A70BB1D1B78032B02D9002000F070F8FB1D1B781F2B02D9002000F069F8FB1D1A7803231340DB0006337B6113
:400B40003C1C1334FFF7AEFF031C2370FB1D1B789B08DBB29B0014495B181B68FB607B690322111C99400B1CDA43FB681340FB60BB1D1A787B69111C99400B1CFA681343C6
:400B8000FB60FB1D1B789B08DBB29B00064A9B18FA681A603B1C13331B78181CFFF786FFBD4607B090BDC04600E400E080B582B000AF021CFB1D1A70064BFA1D11781F22CD
:400BC0000A400121081C9040021C1A60BD4602B080BDC04600E100E080B582B000AF021CFB1D1A70064BFA1D11781F220A400121081C9040021C1A60BD4602B080BDC0464C
:400C000080E100E080B582B000AF021CFB1D1A7001BEBD4602B080BD80B582B000AF786008E00C4B1B68181CFFF732FF7B680A4A9B187B607A6880231B029A42F1D8074B83
:400C40001B687A685343181CFFF722FFBD4602B080BDC046DC0000200080FFFFD400002080B582B000AF021CBB1D1A80BB1D1B88044A12785343181CFFF70AFFBD4602B051
:400C800080BDC046D800002080B500AF00F02CF8BD4680BD80B500AF054B054A1268802109060A431A6000F017F8BD4680BDC0460000064080B500AF064B1B78002B04D1FA
:400CC000FFF7E2FF034B01221A70FFF7E3FFBD4680BDC0460001002080B500AF0A20FFF765FFBD4680BDC04680B500AF1D4B1E4A1A601E4B00221A601D4B01221A601D4B95
:400D000007221A601C4B07221A601C4B00221A601B4B01221A601B4B1B4A1A601B4B00221A600A20FFF758FF0A200321FFF7EAFE174B0A20191CFFF7BFFE164B00221A60A5
:400D4000154B00221A60154B00221A60144B00221A60144B00221A60134B00221A60BD4680BDC046000006400B0000024000064048000640000306400403064010030640EF
:400D800044000640000206400700008004020640AD0D0000880E0640C80E0640480F0640080F0640C80F0640880F064080B500AF044B1B68002B02D0024B1B689847BD4683
:400DC00080BDC0460401002070B50E4B0E4D0024ED1AAD101E1CAC4204D0A300F35898470134F8E700F0D8F8084B094D0024ED1AAD101E1CAC4204D0A300F358984701349E
:400E0000F8E770BDA40F0000A40F0000A40F0000AC0F0000031C8218934202D019700133FAE77047000000000400000000300F40000400400F40000401000F405B300F40D9
:400E400034310F4002330F4002400F4001410F4008430F4002600F40800F0110030C050C060107110B100E011001130319141C0420022401291C2A012B022D092F103002C5
:400E8000311F3204340236013E544056410245EB470C481349FF4AFF4BFF4EF04F44500C5401580459045A045B045F0166C06A406B028013822C88498A108D028E7E91208E
:400EC00094039518960497039840A118A305A413A50EA664AF17B118B470B507B60FB720B902BAA0BB20BF41C001C515C655C80FC9FFCA07CBFFCC40CD20CEF0CF05D0087F
:400F0000D804D904DA04DF01E040E1A8E240E3200322048105100B820C080E100F08108813081708188019A41B021C011D101F602102220224042540278829102B022F6250
:400F4000302031023602370838053A103F8040044780482049214B824C804F0850085610574059855A10C0D5C269C42ECADCCCC5CE17D014D20CD60FB140EE206680D68017
:400F8000B2800002090268017102C008C208DA02DC01100111010000F8B5C046F8BC08BC9E4670476903000025060000F8B5C046F8BC08BC9E46704741030000D00F000062
:400FC000C800002018000000280000000000000000000000C0F1FF0F00366E01C05D0000180000000000E02E00000000000000000000000000000000000000000000000022
:4010000000000000000000000000000000000000000000000000000000000000000000000000000000000000000000000000000000000000000000000000000000000000B0
:401040000000000000000000000000000000000000000000000000000000000000000000000000000000000000000000000000000000000000000000000000000000000070
:401080000000000000000000000000000000000000000000000000000000000000000000000000000000000000000000000000000000000000000000000000000000000030
:4010C00000000000000000000000000000000000000000000000000000000000000000000000000000000000000000000000000000000000000000000000000000000000F0
:0200000490303A
:0200000030DAF4
:0200000490402A
:200000000000000000000000000000000000000000000000000000000000000000000000E0
:0200000490501A
:0C000000000204C81193110104CD426DF0
:0200000490600A
:0100000001FE
:00000001FF