:4000000000100020110000006D0300006D03000008B500F09BFD00F0ABF90000F8B572B680220021D2004A4800F00FFF8023DA004848002100F009FF0023181C4649FF259C
:400040005C584700261CAE431031E2B2351CC919002A07D00E784F787619013A3770D2B20231F5E7E4B204330019102BE6D1C0233A4D3B4F9904802499263A483A4B29609C
:400080003E60E103394E046040251960C0273848384935607C03384B384E046031250A6002221A609927356035488021354D3C040B06354E046080272B6034483449354B56
:4000C0003460354DBC05046019602E78062732432A702A78314C3A432A7020688021CB0203432F4D2F4E236028782F4F31783A78172A05D92D4B7878B978033F9F42F6D161
:400100002B4D2C4E2C4F19222860316005203A6000F0DEFA29482A4B01780520196000F00BFB284E2568284A2E4028482660202710241460264D0760264E274F8021274CE4
:40014000274A28480B062B60336014600760F8BD00300F4000400F40680E0000040001401000014000000440080004400001044008010440080304400004044008040440BC
:4001800000500F4004500F4010500F4018500F40100001002001054000700F4000010B40CCF1FF0FCDF1FF0FC9F1FF0FBDF1FF0F1CFF0B4020FF0B402CFF0B40E5F1FF0FD0
:4001C00028FF0B40FFFFFBFF080202402002024008010B4004010B40AF04008010000080000002404000024010B5064C2378002B07D10548002802D0044800E000BF0121B1
:40020000217010BDF000002000000000640E000008B5084B002B03D00748084900E000BF07480168002903D0064A002A00D0904708BDC04600000000640E0000F40000206B
:40024000D00000200000000010B562B600F0E2FC00280ED16524012000F058FA00F0DAFC002806D1013CE4B2002CF4D1034B40221A6000F0C1FC00F03BFCFEE7C0000020A4
:4002800008B500F0CDF800F005F900F06DF908BD70B5054B0D1C161C0024C9B21C8000F057F93580201C70BD0C010020F0B50A275F4387B002900591161C00252A4CBD428A
:4002C00019DA00F0D5F880B220802388002B0CD00220278800F01AFA00F0CAF881B221802288BA42F4D8002706E00120013500F00DFAADB2E2E705270025358020880028A4
:400300002FD023883088019301994218059993B233808B4221D201982A1893B2049304998D4209D002994819039000F087F8039A01351070ADB2F2E772B62088019A831AF0
:4003400099B2218062B602984219013A1378172BD4D0052000F0DAF9D0E7308000F09AF80527381C07B0F0BD0C01002000B5FEE770B50F490F4A01394B1C14D0506895684C
:400380001468031C1E1AAE4202D040CC40C3F9E7D0681D1C5C1B844202D0002640C3F9E710320139E8E700F021FDFFF74DFFFEE701000000B80E000008B500239A00032B41
:4003C00002D80C48815800E00B490C4801338150302BF3D1FFF722FE09490A4B086800221A60002800D1086080230122D9050A6008BDC046000000006D03000000000020B7
:40040000C0000020C800002008B5044B8022196810060843186000F049F908BD0000064008B5054B1A78002A03D10120187000F0BDF8FFF7E9FF08BD10010020094B00B5E7
:400440001968094B1A6891420AD019684A1C4039481E8141484205490240885C1A6000E0002000BDAC0100202401002068010020064B074A1B68116800B58B4202D31268B1
:40048000981A02E010684133181A00BDAC010020240100200C4A0D4B002130B5106811601D68802464022C431C601D68084C2C401C60084B084C1D68084B25601970084D01
:4004C00008492960106030BDC80F064004030640FFFFFEFF24010020AC010020A9010020C00F0640ED0F0000124910B50A68531C3F3A541EA241544223400F4A1468A342F1
:40050000FBD00C681268944208D10C4C0F2224682240082A02D00A4A10600AE0094C02222260094CC0B2E0540B60084B19680A431A6010BD200100201C0100200802064093
:4005400040020640800F064028010020880F064038B5041C4518AC4204D02078FFF7C4FF0134F8E738BD00000B4A0023116810B513600A4B80201C684002204318601C682F
:40058000074820401860074B07481C68022399430460116010BDC046880F064004020640FFFFFEFF1C010020200100201B4A1C4B1C4810B51C4900241A60046001221B4BBF
:4005C0001B480A601B490360072008601A491B4804600A601A4A13601A4B1C6000F06EF8194800F049F8032000F04CF817481849184A194B04600C60146018491C60184A44
:40060000184B04200860146017481C601749184A184B04600C7014601C6010BD0B000002000006404000064048000640070000800003064004030640440006401003064053
:400640000002064004020640250C0000880E0640C80E0640480F0640080F0640C80F0640880F0640AC01002024010020A9010020200100201C010020014B98667047C04668
:400680000000002038B5041C00F02BF8054B06491D68A2052C1C0C4014431C6000F025F838BDC04608E400E0FFFF3FFF8022024BD00018607047C04600E100E08022024B14
:4006C000D00018607047C04680E100E0000000000230800804D0C0460138FDD1C046C0467047EFF3108072B6704780F31088704701BE7047034B04491A6890B208431860AB
:400700007047C0460CED00E00400FA0510B5041C8022074B1002844205D91868FFF7D8FF04496418F4E758686043FFF7D1FF10BDD40000200080FFFF08B5034B197A48430F
:40074000FFF7C6FF08BDC046D40000200047000038B5041C013806280BD800F03DFB2406260F11080400174820E0174B09E0174B07E00020FFF7BCFF002302E0144B00E0B5
:40078000144B5A78187800021043022C04D0032C07D0012C15D104E0040A0302234398B20FE000BA0DE00C4800E00C48C578817842780378180628430D0228431104084375
:4007C000E3E738BDD87F0000C57F0000D47F0000D27F0000D67F0000C17F0000C97F000038B50220FFF7B4FF051C0320FFF7B0FF6C1CE1010C180220FFF7AAFF0023421CAD
:40080000D201191CA24209D21078451EEDB2FD2D00D80121C318DBB20132F3E705485B420578DCB2AC4201D0062002E00029FBD0002038BDC07F0000F0B5A34CA544FFF757
:400840001FFD62B600250095002603AF962124A849003A1CFF23FFF729FD0028F5D139880423062967D924AA1478012C63D193236B4492221F786A4413783C021C4324AFF9
:400880003A19177953790197E71D9C4603238F4251D89179042317294DD1E3189BB2002B08D0BAAA8949D7187A181778013BC01980B2F3E762464042019F110282B239431D
:4008C0000823914237D168E0342900D09AE0012D00D0F6E0032C00D0F3E06FA80021802200F0B3FA80266FA9881935192639E21EFF39AEB200F0A0FA832E00D0DAE0BC7948
:400900007979009F26020E43002F0AD1391C802204A800F09AFAFF2004A900F0F3F901200090301C6FA900F0EDF90125002800D1C3E000260A2300216846913001270370A9
:400940006A4624AC6B4692330E32277000200F1D197058701180BBB25C4FBAACE418E4192778013BC0199BB280B2002BF4D14442A0B2BAAF564C7B181F19564C38701F19B2
:40098000554C000A38701B19172707311F7089B224A89623FFF77CFC57E724AF79783B79081C31380A2801D90523C4E700F00AFA0611FC8C2FFC32428C507800012D00D0D7
:4009C0007FE0002C7DD1FFF70BFF434243413B7163E0012D75D1012C73D1002B71D13F4A25A8146821889524CF0907703A0A97209627FF216C446F446844397022700370BC
:400A0000042199E7012D5CD1022C5AD96BE7012D57D119E7012D54D19620371943009F424DD86FAA901925A9221C00F005FABEB2002380E7002C44D104AB294A191CA0CA52
:400A4000A0C125AF21CB21C708210125231C73E7012D36D1032C34D196226A449521177869440C7838021A0220438718FF01002280210139CC5D1219D2B20029F9D1002BF5
:400A800008D1FF2806D1174B174918780C78171A3A1BD2B2504224AB1871002301214BE7FFF79EFE002802D1104880240460FFF721FE06E00125002601E0061CB8E7032322
:400AC00039E7042337E7C04614FDFFFFA7FDFFFFACFDFFFFADFDFFFFAEFDFFFFE40000208C0E0000D07F0000D17F0000C0000020144810B50368002219680B1C013BBF2B49
:400B000003D01C781219D2B2F8E740680478A21AD3B2A34201D1002902D10020FFF7E8FDFFF75EFE084C2168221C402901D0002803D000231360FFF77FFE80202060FFF7EC
:400B4000D9FD10BDE4000020C000002008B50B4B10201A680A49024000D10A600B68802B0BD1002201200A60FFF7F2FD002804D00120FFF7EDFDFFF7E9FD08BD00030B40E1
:400B8000C00000200D4B8422D004186019688022500208431860196809481960C3239A000260084B084A09480021196002600849084B09481C2219600260704700010540A9
:400BC00024010540380105401027000014010540881300000C0105402801054008B5FFF780FD044B01211A680A431A60FFF77DFD08BDC0460000054010B5054C2378002BDB
:400C000003D1FFF7BFFF01202070FFF7E7FF10BD18010020024B18680106C80F7047C04604000440264B10B51868002800D0804724490A6852071DD5234C23681A0716D049
:400C4000224B234A186811684B1C40394C1EA1414C42204923400C68A34203D11E4B20221A70E9E71D49C0B2C8541360E4E71C49042008601B4A1468A20720D51A4B0F21B2
:400C800018680140082917D0184A194B1468186884420CD01C68621C3F3C601E8441614214480A40845C14490C601A60E6E7134C022122688A432260114B0220186010BDE0
:400CC00014010020CC0F06400803064040030640AC01002024010020A901002068010020C00F06408C0F064008020640200100201C0100202801002040020640880F0640ED
:400D0000800F0640F0B50023A7B0071C0193FF2845D8994243D0244A244C04AE26607F25049206A88022756000F086F8204D214929602B68002BFCDB2068A0210290029A87
:400D40000B069A4201D1002004E00298020F0F2A02D10920019003E021680B0F0A2BFBD1019A002A1DD12660134E3F0437430497FFF7B7FC1149124A0B6803932A602F683D
:400D8000002FFCDB039DA0260D60FFF7AEFC2468310602940298884203D0029800E001200190019827B0F0BDB6D70000080000400400004004000080B6D8000008010B4062
:400DC0000500008002B4714649084900095649008E4402BC7047C04602B4714649084900095C49008E4402BC7047C04670B50E4B0E4D0024E81A85101E1CAC4204D0A1003F
:400E0000725890470134F8E700F044F80849094A0E1C541AA5100024AC4204D0A300F05880470134F8E770BDA00E0000A00E0000A00E0000A80E000010B50023934203D0B7
:400E4000CC5CC4540133F9E710BD00B58218031C934202D019700133FAE700BDE80E0000050000000000000001330F4003410F4004430F4002600F40E61062048E04D84083
:400E800018808C40C608E608020111019311C80411140101F8B5C046F8BC08BC9E46704711020000B9030000F8B5C046F8BC08BC9E467047E9010000C80E0000D00000205B
:400EC00020000000C0000000000000000000E02EC05D00001800000000366E015C0E0000600E00000000000000000000000000000000000000000000000000000000000052
:400F000000100020110F0000DD2B0000DD2B000080B500AF024B83F3088801F063FEC0460010002080B584B000AF021CFB1D1A70204A3B1C0B3312781A701F4A3B1C0A33AA
:400F400012781A700423013BFB6018E01B4B1868391C0B31FA68131C5B009B18C3185B780B70164B1868391C0A31FA68131C5B009B18C3189B780B70FB68013BFB60FB6892
:400F8000002B0ADB0D4B1968FA68131C5B009B185B5CFA1D12789A42D8D9094B3A1C0B3212781A60074B3A1C0A3212781A60BD4604B080BDCCF1FF0FCDF1FF0FD80000206E
:400FC0001CFF0B4020FF0B4080B500AF294B294A12688021C9020A431A601820FFF7A2FF254B19221A60052002F05AF8234B244A1278D2B21A60052002F03AF91D4B1D4ACF
:401000001168204A0A401A601F4B204A1A60204B31221A601F4B20221A601F4B11221A601E4B21221A601E4B21221A601D4B21221A601D4B30221A601C4B10221A601C4B27
:4010400021221A601B4B822212061A601A4B1B4A1A601B4B1B4A1A601B4B1C4A1A601C4B1A4A1A601B4B194A1A601B4B1B4A1A60BD4680BD00010B402CFF0B4028FF0B4007
:40108000E5F1FF0FFFFFFBFF04010B4006000080080202400C0202401C0202402002024024020240280202402C020240340202403C02024008010B40000002400B000080C1
:4010C000400002401000008080000240170000800400024044000240840002409B00008080B586B000AF72B63B1C173300221A7026E03B1C17331A78131C5B009B185B0078
:40110000734A9B183B613B691A78597809020A43997809040A43DB781B0613431A1C3B6919795B791B020B439BB2101C191C01F0DFFD3B1C17331A783B1C173301321A7058
:401140003B1C17331B78022BD3D93B1C173300221A7038E03B1C17331A78131C9B009B185B005C4A9B18FB60FB681A78597809020A43997809040A43DB781B061343BB60D0
:40118000FB681A79597909020A43997909040A43DB791B0613437B60BA1CFB68197A5B7A1B020B431380BB1C1B88B9687A68081C111C1A1C01F0ACFD3B1C17331A783B1C36
:4011C000173301321A703B1C17331B78012BC1D9414A424B101C191C01F0ACFD404BA02212011A803F4B01221A703F4B3F4A1A603F4B404A1A60404B404A1A60404B9922BA
:401200001A60404B50221A603F4B404A1A60404B0F221A603F4B404A1A60404B03221A603F4B03221A603F4BF2221A603E4B3F4A1A603F4B02221A603E4B02221A603E4B9C
:4012400031221A603D4B02221A603D4B992212041A603C4BA02212031A603B4B842292051A603A4B992212041A60394B9622D2031A60384B992212041A60374B9922120417
:401280001A60364BAA2212061A60354B344A1278D2B202210A43D2B21A70324B314A1278D2B20C218A43D2B204210A43D2B21A702B4B2B4A1278D2B216210A43D2B21A70BC
:4012C000FFF782FE01F076FDBD4606B080BDC04690400000A4400000B8400000DC40000000600F4002600F40000001400000030304000140383300000C00014099EE000025
:4013000010000140000004400800044089ED18000001044008010440B60D180000020440180204400003044008030440B12D49001803044000040440080404401804044019
:4013400000500F4004500F4008500F4010500F4018500F4020500F4030500F4034500F4000700F4001700F4010B5064C2378002B07D1054B002B02D0044800E000BF01232D
:40138000237010BDF0000020000000000840000008B5084B002B03D00748084900E000BF07480368002B03D0064B002B00D0984708BDC0460000000008400000F40000201E
:4013C000D00000200000000080B586B000AF0A1CFB1D011C19703B1D1A803B1C0C33FF221A703B1C0C33FF225A703B1C0C33FA1D12789A703B1C0C330522DA703B1C0C336D
:4014000003221A713B1C0C331E225A713B1D1B88DAB23B1C0C339A713B1D1B881B0A9BB2DAB23B1C0C33DA713B1C0C339A79FB1D1B78D318DAB23B1C0C33DB79D318DBB22C
:401440002633DBB2DB43DAB23B1C0C331A723B1C0C33181C092102F0A1FBBD4606B080BD80B586B000AF0A1CFB1D011C19703B1D1A803B1C0C33FF221A703B1C0C33FF225A
:401480005A703B1C0C33FA1D12789A703B1C0C330522DA703B1C0C3303221A713B1C0C330E225A713B1D1B88DAB23B1C0C339A713B1D1B881B0A9BB2DAB23B1C0C33DA7141
:4014C0003B1C0C339A79FB1D1B78D318DAB23B1C0C33DB79D318DBB21633DBB2DB43DAB23B1C0C331A723B1C0C33181C092102F055FBBD4606B080BD80B586B000AF0A1CB1
:40150000FB1D011C19703B1D1A803B1C0C33FF221A703B1C0C33FF225A703B1C0C33FA1D12789A703B1C0C330522DA703B1C0C3303221A713B1C0C3320225A713B1D1B880D
:40154000DAB23B1C0C339A713B1D1B881B0A9BB2DAB23B1C0C33DA713B1C0C339A79FB1D1B78D318DAB23B1C0C33DB79D318DBB22833DBB2DB43DAB23B1C0C331A723B1C2C
:401580000C33181C092102F009FBBD4606B080BD80B582B000AF01F06BFD031C7B60054B01221A707B68181C01F06CFDBD4602B080BDC0466001002080B584B000AF0A1C14
:4015C000BB1D011C19803B1D1A80BB1D1A88454B9A4216D9BB1D1A88434B9A4211D83B1D1A88424B9A4206D93B1C0E333A1D1288023A1A806EE03B1C0E33FA2292001A80FA
:4016000068E0BB1D1A88384B9A4216D9BB1D1A88374B9A4211D83B1D1A88364B9A4206D93B1C0E333A1D1288013A1A8052E03B1C0E33FA2292001A804CE0BB1D1A882E4B14
:401640009A420AD8BB1D1A88294B9A4205D93B1C0E333A1D12881A803CE0BB1D1A88264B9A4216D9BB1D1A88244B9A4211D83B1D1A88234B9A4206D83B1C0E333A1D1288B6
:4016800001321A8026E03B1C0E33FA22D2001A8020E0BB1D1A88194B9A4217D9BB1D1A88FA23DB009A4211D83B1D1A88154B9A4206D83B1C0E333A1D128802321A8009E002
:4016C0003B1C0E33FA22D2001A8003E03B1C0E330D4A1A803B1C0E331B88181CBD4604B080BDC046E7030000E1040000EA0300005E050000E903000059060000D6060000AF
:40170000CE070000CD070000DC05000080B584B000AF0A1CBB1D011C19803B1D1A803B1C0C330C221A80BB1D1A88324B9A421ED9BB1D1A88304B9A4219D83B1D1A883B1C26
:401740000C331B888021C9005B189A4209DD3B1C0E33391D3A1C0C32098812888A1A1A8041E03B1C0E338022D2001A803BE0BB1D1A8883231B019A420AD8BB1D1A881E4B3E
:401780009A4205D93B1C0E333A1D12881A802AE0BB1D1A8883231B019A421FD9BB1D1A88C0231B019A4219D83B1D1A883B1C0C331B88C0210901CB1A9A4209DA3B1C0E3392
:4017C000391D3A1C0C32098812888A181A800AE03B1C0E33C02212011A8004E03B1C0E33802212011A803B1C0E331B88181CBD4604B080BDFF030000CF07000080B584B018
:4018000000AF0A1CBB1D011C19803B1D1A803B1C0C330C221A80BB1D1A882C4B9A4215D83B1D1A883B1C0C331B889A4209DD3B1C0E33391D3A1C0C32098812888A1A1A805B
:401840003DE03B1C0E3300221A8038E0BB1D1A8883231B019A420AD8BB1D1A881B4B9A4205D93B1C0E333A1D12881A8027E0BB1D1A8883231B019A421CD9BB1D1A88144B3B
:401880009A4217D83B1D1A883B1C0C331B881049CB1A9A4209DA3B1C0E33391D3A1C0C32098812888A181A8009E03B1C0E33084A1A8004E03B1C0E33802212011A803B1CB5
:4018C0000E331B88181CBD4604B080BDCF070000FF0F000080B584B000AF7860FB1C1970BB1C1A70FB1C1B787A68D3181B781A023B1C0E331A80BB1C1B787A68D3181A78E6
:401900003B1C0C331A803A1C0E323B1C0C3312881B8813439AB23B1C0A331A803B1C0A3300215B5E002B00DA01335B109BB29AB23B1C0833044952181A803B1C08331B887B
:40194000181CBD4604B080BDDC05000080B584B000AF7860FB1C1970BB1C1A70FB1C1B787A68D3181B781A023B1C0E331A80BB1C1B787A68D3181A783B1C0C331A803A1CC6
:401980000E323B1C0C3312881B8813439AB23B1C0A331A803B1C0A331B888022D2009B189BB23A1C0832DB1813803B1C08331B88181CBD4604B080BD80B584B000AF786036
:4019C000FB1C1970BB1C1A70FB1C1B787A68D3181B781A023B1C0E331A80BB1C1B787A68D3181A783B1C0C331A803A1C0E323B1C0C3312881B8813439AB23B1C0A331A805C
:401A00003B1C0A331A883B1C08338021090152181A803B1C08331B88181CBD4604B080BD80B500AF554B1B78042B60D89A00544BD3181B689F46534B02221A70514BCA22F4
:401A40005A70504B00229A704E4B0022DA704D4B00221A714B4B00225A714A4B00229A71484B0022DA71474B00221A72454B00225A72444B00229A72424B0022DA72414B44
:401A800000221A733F4B00225A733E4B00229A733C4B0022DA733B4B00221A74394B00225A74384B00229A74364B0022DA74354B00221A75344B03221A70334BCA225A706F
:401AC000314B07229A7017E02E4B181C152100F029FF00F0ADFE0FE02B4B181C032100F021FF00F0A5FE294B00221A7004E0234B00221A7000E0C046204B1B78042B37D80A
:401B00009A00234BD3181B689F461C4B01221A7032E01A4B03221A702EE0184B04221A702AE0164B04221A7026E0184B1B78002B0AD001F0BFFB031C002B05D100F092FE88
:401B40000E4B03221A7012E0104B1B78002B0AD101F0B0FB031C002B05D100F083FE074B02221A7003E0054B04221A7004E003E0024B00221A70C046BD4680BD3D01002003
:401B80000C4000006C010020400100203C0100202040000080B500AF034B181C182100F095FEBD4680BDC0464401002090B583B000AF4A4B1B78012B08D002DC002B56D0DF
:401BC00051E0022B0DD0032B53D04CE080231B010220191CFFF7F8FB414B802212011A8048E0BC1D3F4B181C10211122FFF7E4FE031C2380BB1D1A88C0231B019A421AD84F
:401C0000BB1D1A88384B9A4215D9002001F07AF9334B1B88BA1D1288101C191CFFF776FD031C1A1C2E4B1A802D4B1B880220191CFFF7CAFB13E0012001F064F9284B1B88F0
:401C40003C1D80221201101C191CFFF75FFD031C23803B1D1B880220191CFFF7B5FB234B00221A7006E01D4B00221A7002E0C04600E0C046194B1B78012B0CD002DC002BFF
:401C800005D024E0022B0AD0032B14D01FE0134B01221A701FE0114B03221A701BE0134B1B78002B03D00D4B02221A7013E00B4B03221A700FE00D4B1B78002B03D0074B0C
:401CC00002221A7007E0054B03221A7003E0034B00221A70C046BD4603B090BD5C0100206201002044010020FF0300001001002090B583B000AF474B1B78012B08D002DCA4
:401D0000002B50D04BE0022B0DD0032B4DD046E080231B010120191CFFF756FB3E4B802212011A8042E0BC1D3C4B181C12211322FFF70CFE031C2380BB1D1A88384B9A42C5
:401D400015D8002001F0DEF8334B1B88BA1D1288101C191CFFF752FD031C1A1C2E4B1A802D4B1B880120191CFFF72EFB13E0012001F0C8F8284B1B883C1D80221201101C4A
:401D8000191CFFF73BFD031C23803B1D1B880120191CFFF719FB234B00221A7006E01D4B00221A7002E0C04600E0C046194B1B78012B0CD002DC002B05D024E0022B0AD0D9
:401DC000032B14D01FE0134B01221A701FE0114B03221A701BE0134B1B78002B03D00D4B02221A7013E00B4B03221A700FE00D4B1B78002B03D0074B02221A7007E0054BC6
:401E000003221A7003E0034B00221A70C046BD4603B090BD660100205E01002044010020FF0F00001101002090B583B000AF3B4B1B78012B08D002DC002B38D033E0022BCD
:401E400008D0032B35D02EE0354B1B88181C01F0B3FB2FE0BC1D334B181C0E210F22FFF739FD031C2380BB1D1A88FA23DB009A420DD8BB1D1A882C4B9A4208D9002001F079
:401E800041F8BB1D1B88181C01F096FB07E0012001F038F8224B1B88181C01F08DFB234B00221A7006E01D4B00221A7002E0C04600E0C046194B1B78012B0CD002DC002BE8
:401EC00005D024E0022B0AD0032B14D01FE0134B01221A701FE0114B03221A701BE0134B1B78002B03D00D4B02221A7013E00B4B03221A700FE00D4B1B78002B03D0074BCA
:401F000002221A7007E0054B03221A7003E0034B00221A70C046BD4603B090BD64010020D400002044010020E70300001201002090B583B000AF3B4B1B78012B08D002DC0A
:401F4000002B38D033E0022B08D0032B35D02EE0354B1B88181C01F0DFFB2FE0BC1D334B181C0C210D22FFF7B5FC031C2380BB1D1A88FA23DB009A420DD8BB1D1A882C4B30
:401F80009A4208D9002000F0BDFFBB1D1B88181C01F0C2FB07E0012000F0B4FF224B1B88181C01F0B9FB234B00221A7006E01D4B00221A7002E0C04600E0C046194B1B78CE
:401FC000012B0CD002DC002B05D024E0022B0AD0032B14D01FE0134B01221A701FE0114B03221A701BE0134B1B78002B03D00D4B02221A7013E00B4B03221A700FE00D4B9B
:402000001B78002B03D0074B02221A7007E0054B03221A7003E0034B00221A70C046BD4603B090BD5D010020D400002044010020E70300001301002090B583B000AF484B94
:402040001B78012B08D002DC002B51D04CE0022B0BD0032B4ED047E0424B1B88181C01F0FBF9414B414A1A8045E0BC1D404B181C0A210B22FFF72EFC031C2380BB1D1A888D
:40208000FA23DB009A4219D8BB1D1A88394B9A4214D9354B1B88181C01F0DEF9324B1B88BA1D1288101C191CFFF786FA031C1A1C2D4B1A80002000F025FF11E0012000F070
:4020C00021FF294B1B883C1D284A101C191CFFF773FA031C23803B1D1B88181C01F0BCF9254B00221A7006E01D4B00221A7002E0C04600E0C0461A4B1B78012B0CD002DCC1
:40210000002B05D024E0022B0AD0032B14D01FE0134B01221A701FE0114B03221A701BE0154B1B78002B03D00D4B02221A7013E00B4B03221A700FE00F4B1B78002B03D0AA
:40214000074B02221A7007E0054B03221A7003E0034B00221A70C046BD4603B090BDC04643010020D400002068010020DC05000044010020E70300001401002090B583B0CF
:4021800000AF384B1B78012B08D002DC002B32D02DE0022B08D0032B2FD028E0324B1B88181C01F085FC29E0BC1D304B181C14211522FFF78FFB031C2380BB1D1A88FA2368
:4021C000DB009A420AD8BB1D1A88294B9A4205D9BB1D1B88181C01F06BFC04E0FA239B00181C01F065FC234B00221A7006E01D4B00221A7002E0C04600E0C046194B1B789C
:40220000012B0CD002DC002B05D024E0022B0AD0032B14D01FE0134B01221A701FE0114B03221A701BE0134B1B78002B03D00D4B02221A7013E00B4B03221A700FE00D4B58
:402240001B78002B03D0074B02221A7007E0054B03221A7003E0034B00221A70C046BD4603B090BD65010020D400002044010020E70300001501002080B582B000AFFB1CD5
:402280000C221A70404B1B78042B43D89A003F4BD3181B689F46BB1C10221A707B1C00221A703B1CB91C7A1C097812780A431A703B1C1B78181C01F059FD30E000237B609A
:4022C0000AE001F0E9FD031CDAB231497B68CB181A707B6801337B60FB1C1A787B689A42EFDC1CE0BB1C2B4A927D1A707B1C294AD27D1A703B1CB91C7A1C097812780A43A5
:402300001A703B1C1B78181C01F030FD224B00221A7004E01C4B00221A7000E0C0461A4B1B78042B28D89A001C4BD3181B689F46154B01221A7023E0134B02221A701FE04B
:40234000114B03221A701BE0134B1B78002B03D00D4B04221A7013E00B4B02221A700FE00D4B1B78002B03D0074B04221A7007E0054B02221A7003E0034B00221A70C046C7
:40238000BD4602B080BDC04667010020344000006C01002044010020160100204840000080B582B000AF002000F092FF0A2000F03BFF012000F08CFF012000F0AFFFFB1DFA
:4023C00000221A700DE000F067FF031C002B00D00BE0042000F028FFFB1D1A78FB1D01321A70FB1D1B78632BEDD92C4B00221A702B4B00221A702B4B00221A702A4B002232
:402400001A702A4B00221A70294B00221A70294B00221A70284B00221A7001F003FA00F009FD00F0F9FC01F08DFB01F047F900F0E5FF01F093F801F097FA01F035FC1F4BC1
:40244000042001211A1C00F02FF996235B00FE20191CFFF751F81A4BFE20191CFFF700F8184B1B88181C01F0A7F8164B1B88181C01F052F9134B1B88181C01F019FB124BA7
:40248000181C00F0D1FE62B6104B181C00F0E0FC00F096FDBD4602B080BDC046430100205C010020660100205D0100206401002065010020670100203D0100208769000074
:4024C000FF030000D4000020B80B00009115000080B584B000AF3B1C0F3300221A70524B1A88BB1D1A803B1C0E3300221A70FFF757FF00F0DFFE031C002B1DD100F0B2F93F
:40250000FFF748FB494B01221A70494B01221A70484B01221A70484B01221A70474B01221A70474B01221A70464B01221A703B1C0F3300221A7006E03B1C0F333A1C0F3249
:40254000127801321A703B1C0F331B78312B1DD9354B1A88BB1D1A800023BB6013E0BB1D00229B5E1B129BB2DAB23749BB68CB181A70BB680133BA1D1288D1B2324AD154DC
:40258000BB680233BB60BB68172BE8DDFFF754FDFFF7CEFCFFF748FCFFF7F0FDFFF706FBFFF7A6FBFFF768FE3B1C0E333A1C0E32127801321A703B1C0E331B78642B07D169
:4025C0003B1C0E3300221A70204B01221A7002E01E4B00221A701E4B1A781E4B9A731E4B1A781C4BDA731D4B1A781A4B1A741C4B1A78184B5A741B4B1A78164B9A741A4B85
:402600001A78144BDA74194B1A78124B1A75FFF707FAC046164B1B78DBB2002BFAD0144B00221A7065E7C046D40000201401002011010020100100201301002012010020B6
:402640001501002016010020440100203C010020190100206C0100201A0100201B0100201C0100201D0100201E0100201F0100206001002080B582B000AF021CFB1D1A709C
:40268000FB1D1B78181C01F007F9C04601F0E4F8031C1A1C01231340F8D001F017F9031C181CBD4602B080BD80B590B000AFFB1D1870BB1D19703B1D1A803A1C2832544B37
:4026C000111C1A1C1323081C111C1A1C01F08AFC3A1C14324F4B111C1A1C1223081C111C1A1C01F07FFC3B1C143301229A733B1C1433BA1D1278DA733B1D1B881B0A9BB2FB
:40270000DAB23B1C14331A743B1D1B88DAB23B1C14335A743B1C0C33092000211A1C062300F016FA3B1C28330A225A743B1C2833FA1D12789A743B1D1B881B0A9BB2DAB2A9
:402740003B1C14331A713B1D1B88DAB23B1C14335A713B1C2833002000211A1C132300F06DF93B1C1433002001211A1C122300F065F93B1C0C33092000211A1C062300F0C3
:402780005DF912200121642200F01EF9642000F04BFD00F043F80020142100F077F8002000F0BCFD0020FFF765FF0020FFF762FF1420FFF75FFF3B1C3E3300221A8016E08B
:4027C0003B1C3E331B881B0A9BB2DBB2181CFFF751FF3B1C3E331B88DBB2181CFFF74AFF3B1C3E331A883B1C3E3301321A803B1C3E331A88084B9A42E2D9012000F08EFD9B
:402800003B1C0C335B79181CBD4610B080BDC0465C40000070400000FF03000080B500AF01200121012200F09FF8BD4680BDC04680B500AF0A4B1B88242001211A1C00F027
:40284000C3F801200121202200F08EF82420012100F03EF9031C1A1C014B1A80BD4680BD2001002080B500AF02200121FF2200F07BF817200021FF2200F076F81520002180
:40288000FF2200F071F8BD4680BDC04680B582B000AF0A1CFB1D011C1970BB1D1A70BB1D1B782C2001211A1C00F05EF818200021012200F059F8FB1D1B78162000211A1CB2
:4028C00000F052F8BD4602B080BDC04680B582B000AF78600A1CFB1C1A70114B19887A68FB1C1B78081C032100F032F92A20012100F0EEF8031C1A1C094B1A80084B1B888A
:40290000282001211A1C00F05FF801200121402200F02AF8024B1B88181CBD4602B080BD2201002080B582B000AF78600A1CFB1C1A700C4B19887A68FB1C1B78081C022120
:4029400000F07CF8FB1C1B789AB2064B1B88D3189AB2044B1A80034B1B88181CBD4602B080BDC0462001002080B582B000AFBB1D18807B1D19703B1D1A70002000F0CEFC28
:40298000BB1D1B881B0A9BB2DBB2181CFFF772FEBB1D1B88DBB2181CFFF76CFE7B1D1B78DB00DBB204221343DBB2DBB2181CFFF761FE3B1D1B78181CFFF75CFE012000F035
:4029C000ADFCBD4602B080BD80B582B000AFBB1D18807B1D1970BB1C1A80002000F09EFCBB1D1B881B0A9BB2DBB2181CFFF742FEBB1D1B88DBB2181CFFF73CFE7B1D1B78FF
:402A0000DB00DBB204221343DBB2DBB2181CFFF731FEBB1C1B881B0A9BB2DBB2181CFFF729FEBB1C1B88DBB2181CFFF723FE012000F074FCBD4602B080BDC04680B584B041
:402A400000AF3A601A1CBB1D18807B1D19703B1D1A70002000F062FCBB1D1B881B0A9BB2DBB2181CFFF706FEBB1D1B88DBB2181CFFF700FE7B1D1B78DB00DBB2042213430F
:402A8000DBB2DBB2181CFFF7F5FD3B1C0F3300221A700FE03B1C0F331B783A68D3181B78181CFFF7E7FD3B1C0F331A783B1C0F3301321A703A1C0F323B1D12781B789A42E9
:402AC000E8D3012000F02AFCBD4604B080BDC04680B584B000AF0A1CBB1D011C19807B1D1A70002000F01AFCBB1D1B881B0A9BB2DBB2181CFFF7BEFDBB1D1B88DBB2181C3B
:402B0000FFF7B8FD7B1D1B78DB00DBB2181CFFF7B1FD0020FFF7AEFD031C1A1C3B1C0E3312021A800020FFF7A5FD031C191C3B1C0E333A1C0E3212880A431A80012000F057
:402B4000EDFB3B1C0E331B88181CBD4604B080BD90B585B000AF3A601A1CBB1D18807B1D19703B1D1A70002000F0D8FBBB1D1B881B0A9BB2DBB2181CFFF77CFDBB1D1B8823
:402B8000DBB2181CFFF776FD7B1D1B78DB00DBB2181CFFF76FFD3B1C0F3300221A7010E03B1C0F331B783A68D4180020FFF762FD031C23703B1C0F331A783B1C0F330132B5
:402BC0001A703A1C0F323B1D12781B789A42E7D3012000F0A3FBBD4605B090BD80B500AFFEE7C04680B586B000AF224B7B61224B3B61204B7B6135E03B691B68FB603B6938
:402C00005B68BB603B699B683B6000237B600CE0FB681A68BB681A60BB680433BB60FB680433FB607B6804337B607A683B689A42EED13B69DB683B6000237B6008E0BB68FE
:402C400000221A60BB680433BB607B6804337B607A683B689A42F2D13B6910333B617B69013B7B617B69002BC6D101F095F9FFF72FFCFEE701000000BC43000080B582B019
:402C800000AF00237B600FE07B68032B04D8134B7A689200D35800E0114B124A796889008B507B6801337B607B682F2BECD9FEF717FA0D4B00221A600C4B1B68002B02D1EB
:402CC0000A4B00221A608023DB058022D205126801210A431A60BD4602B080BD000F0000DD2B000000000020C8000020C000002080B582B000AF786039607A683B68101C5B
:402D000000211A1C01F077F9BD4602B080BDC04680B584B000AFF860B9607A60F968BA687B68081C111C1A1C01F05CF9BD4604B080BDC04680B586B000AF786039600023A5
:402D40003B6100237B612EE07B699B007A68D3181B68BB603B1C0F33BA681A70BB68FF229343BB6017E03B695B003A68D3181B781A1CBB68D3183A69520039688A185278EA
:402D80001A703B6901333B613B1C0F331A783B1C0F33013A1A703B1C0F331B78002BE2D17B6901337B617B69082BCDD9BD4606B080BDC04680B500AF054B03221A60054BB2
:402DC00003221A60012000F007F8BD4680BDC04600031A4040031A4080B584B000AF021CFB1D1A700B4B1B68FB60FB1D1B78002B05D0FB68802212061343FB6003E0FB6819
:402E00005B005B08FB60034BFA681A60BD4604B080BDC04680031A4080B500AF044B044A1268802109060A431A60BD4680BDC0468000024080B500AF044B044A1268802162
:402E400009060A431A60BD4680BDC0464400024080B582B000AF786000F04AF87B68181C00F008F8032000F013F800F037F8BD4602B080BD80B582B000AF7860034A8C2370
:402E80007968D150BD4602B080BDC0460000002090B585B000AF021CFB1D1A701E23FB603C1C0B3400F006F9031C23700A4B0A4A126892009108FA1D1078FA68041C9440F8
:402EC000221C0A431A603B1C0B331B78181C00F0F5F8BD4605B090BD10E400E080B500AF024B802212031A60BD4680BD00E100E080B500AF024B802212031A60BD4680BDB6
:402F000080E100E080B584B000AF021CFB1D1A700E4B1B68DAB23B1C0F3340218A431A70FB1D1B789B01DAB240231340D9B23B1C0F333A1C0F3212780A431A70034B3A1C76
:402F40000F3212781A60BD4604B080BD0001044080B500AF094B802292041A60084B0C221A60012000F078F8064B181C00F048F8002000F037F8BD4680BDC046C00105402D
:402F8000E40105401027000090B583B000AFFC1D00F090F8031C2370084B084A126808210A431A60FB1D1B78181C00F087F80820182100F033F8BD4603B090BD0000054025
:402FC00080B500AF064B1B78002B04D1FFF7C0FF034B01221A70FFF7D7FFBD4680BDC0462401002080B582B000AF7860034B7A681204120C1A60BD4602B080BDC801054036
:4030000080B582B000AF7860034B7A681204120C1A60BD4602B080BDD401054090B585B000AF786039603C1C0F3400F043F8031C2370084B3A687968081C9040021C1A6044
:403040003B1C0F331B78181C00F038F8BD4605B090BDC0460800054080B582B000AF7860024B7A681A60BD4602B080BDF801054080B500AF024B1B68181CBD4680BDC04683
:40308000FC01054080B582B000AF7860024B7A681A60BD4602B080BDF0010540000000000230800804D0C0460138FDD1C046C046C0467047EFF3108072B6704780F310884F
:4030C0007047C046C046C04680B584B000AF021C3960FB1D1A7080239B05FB60FB1D1B781F2B02D9002000F095F8FB1D1B7810339B00FA68D3181B68BB60FB1D1B78103329
:403100009B00FA68D3183A681A60BB68181CBD4604B080BD90B587B000AF0A1CFB1D011C1970BB1D1A70BB1D1B78032B02D9002000F070F8FB1D1B781F2B02D9002000F003
:4031400069F8FB1D1A7803231340DB0006337B613C1C1334FFF7AEFF031C2370FB1D1B789B08DBB29B0014495B181B68FB607B690322111C99400B1CDA43FB681340FB605F
:40318000BB1D1A787B69111C99400B1CFA681343FB60FB1D1B789B08DBB29B00064A9B18FA681A603B1C13331B78181CFFF786FFBD4607B090BDC04600E400E080B582B015
:4031C00000AF021CFB1D1A70064BFA1D11781F220A400121081C9040021C1A60BD4602B080BDC04600E100E080B582B000AF021CFB1D1A70064BFA1D11781F220A40012109
:40320000081C9040021C1A60BD4602B080BDC04680E100E080B582B000AF021CFB1D1A7001BEBD4602B080BD80B582B000AF786008E00C4B1B68181CFFF732FF7B680A4A00
:403240009B187B607A6880231B029A42F1D8074B1B687A685343181CFFF722FFBD4602B080BDC046E80000200080FFFFE000002080B582B000AF021CBB1D1A80BB1D1B8842
:40328000044A12785343181CFFF70AFFBD4602B080BDC046E400002080B500AF044B1A68022313405B08DBB2181CBD4680BDC0460400044080B500AF044B1B68DAB201232C
:4032C0001340DBB2181CBD4680BDC0460400044080B584B000AF021CFB1D1A700E4B1B68DAB23B1C0F3304218A431A70FB1D1B789B00DAB204231340D9B23B1C0F333A1C11
:403300000F3212780A431A70034B3A1C0F3212781A60BD4604B080BD0000044080B584B000AF021CFB1D1A700E4B1B68DAB23B1C0F3308218A431A70FB1D1B78DB00DAB25F
:4033400008231340D9B23B1C0F333A1C0F3212780A431A70034B3A1C0F3212781A60BD4604B080BD0000044080B500AF104B8022D2041A600E4B0E4A12681A60002000F0AC
:403380004FF80B4B0A4A12681A600A4B0C221A60012000F08DF8084B31221A60074B181C00F04CF8064B181C00F056F8BD4680BD400105406401054068010540204E00006C
:4033C000DC05000090B583B000AFFC1DFFF772FE031C2370084B084A126802210A431A60FB1D1B78181CFFF769FE0220182100F041F8BD4603B090BD0000054080B500AF9F
:40340000064B1B78002B04D1FFF7AEFF034B01221A70FFF7D7FFBD4680BDC0462501002080B582B000AF7860034B7A681204120C1A60BD4602B080BD4801054080B582B0FF
:4034400000AF7860034B7A681204120C1A60BD4602B080BD5401054080B582B000AF7860034B7A681204120C1A60BD4602B080BD4C01054090B585B000AF786039603C1C19
:403480000F34FFF717FE031C2370084B3A687968081C9040021C1A603B1C0F331B78181CFFF70CFEBD4605B090BDC0460800054080B582B000AF7860024B7A681A60BD4658
:4034C00002B080BD7801054080B500AF104B8022D2041A600E4B0E4A12681A60002000F04FF80B4B0A4A12681A600A4B0C221A60012000F08DF8084B31221A60074B181C1B
:4035000000F04CF8064B181C00F056F8BD4680BD80010540A4010540A8010540204E0000DC05000090B583B000AFFC1DFFF7C2FD031C2370084B084A126804210A431A60B5
:40354000FB1D1B78181CFFF7B9FD0420182100F041F8BD4603B090BD0000054080B500AF064B1B78002B04D1FFF7AEFF034B01221A70FFF7D7FFBD4680BDC0462601002033
:4035800080B582B000AF7860034B7A681204120C1A60BD4602B080BD8801054080B582B000AF7860034B7A681204120C1A60BD4602B080BD9401054080B582B000AF7860F9
:4035C000034B7A681204120C1A60BD4602B080BD8C01054090B585B000AF786039603C1C0F34FFF767FD031C2370084B3A687968081C9040021C1A603B1C0F331B78181C26
:40360000FFF75CFDBD4605B090BDC0460800054080B582B000AF7860024B7A681A60BD4602B080BDB801054080B500AF104B8022D2041A600E4B0E4A12681A60002000F076
:403640004FF80B4B0A4A12681A600A4B0C221A60012000F08DF8084B31221A60074B181C00F04CF8064B181C00F056F8BD4680BD000105402401054028010540204E000069
:40368000DC05000090B583B000AFFC1DFFF712FD031C2370084B084A126801210A431A60FB1D1B78181CFFF709FD0120182100F041F8BD4603B090BD0000054080B500AFA0
:4036C000064B1B78002B04D1FFF7AEFF034B01221A70FFF7D7FFBD4680BDC0462701002080B582B000AF7860034B7A681204120C1A60BD4602B080BD0801054080B582B07B
:4037000000AF7860034B7A681204120C1A60BD4602B080BD1401054080B582B000AF7860034B7A681204120C1A60BD4602B080BD0C01054090B585B000AF786039603C1CD6
:403740000F34FFF7B7FC031C2370084B3A687968081C9040021C1A603B1C0F331B78181CFFF7ACFCBD4605B090BDC0460800054080B582B000AF7860024B7A681A60BD4659
:4037800002B080BD3801054080B500AF084B0F221A7000F0ABF800F05FF800F06DF8054B00221A70044B00221A70BD4680BDC04683000F4082000F4080000F4090B583B054
:4037C00000AFFC1DFFF776FC031C2370124B124A1278D2B220210A43D2B21A700F4B0F4A1278D2B210210A43D2B21A700C4B0C4A1278D2B210210A43D2B21A70FB1D1B7845
:40380000181CFFF75BFC00F0A1F800F01DF800F01FF8BD4603B090BD93000F4092000F4090000F4080B500AF064B1B78002B04D1FFF7AAFF034B01221A70FFF7BFFFBD46B4
:4038400080BDC0462801002080B500AFBD4680BD80B500AFBD4680BD80B582B000AF054AFB1D12781A70FB1D1B78181CBD4602B080BDC04662000F4080B582B000AF054AF6
:40388000FB1D12781A70FB1D1B78181CBD4602B080BDC04660000F4080B582B000AF021CFB1D1A70C046074B1B78DBB21A1C04231340F8D0044BFA1D12781A70BD4602B061
:4038C00080BDC04662000F4040000F4080B582B000AF054AFB1D12781A70FB1D1B78181CBD4602B080BDC04650000F4090B583B000AF01E0124B1B78124B1B78DBB21A1C93
:4039000020231340F6D1FC1DFFF7D4FB031C23700D4B0D4A1278D2B201210A43D2B21A70094B094A1278D2B201218A43D2B21A70FB1D1B78181CFFF7C1FBBD4603B090BD1A
:4039400050000F4060000F4090000F4080B500AF044B044A1268802109060A431A60BD4680BDC0460000024080B500AF064B1B78002B04D100F00AF8034B01221A7000F07B
:4039800059F8BD4680BDC0462901002090B583B000AF224B1B78DAB2FB1D3F218A431A701E4BFA1D12780A210A43D2B21A701C4B1B4A1278D2B201210A43D2B21A70194B59
:4039C000184A1278D2B201210A43D2B21A70164B181C00F03FF8144B181C00F059F8134B181C00F065F8002000F072F8BC1DFFF761FB031C23700E4B0D4A1278D2B2102125
:403A00000A43D2B21A70BB1D1B78181CFFF756FB00F030F8BD4603B090BDC04671000F4092000F4093000F401F4E0000DC05000091000F4080B500AF054B054A1278D2B2E2
:403A4000802149420A43D2B21A70BD4680BDC04671000F4080B582B000AF021CBB1D1A80034BBA1D12881A80BD4602B080BDC04604100F4080B500AF01E000F043F800F07F
:403A800037F8031C1A1C10231340F6D1BD4680BD80B582B000AF021CBB1D1A80034BBA1D12881A80BD4602B080BDC04684100F4080B582B000AF021CBB1D1A80034BBA1D50
:403AC00012881A80BD4602B080BDC04644100F4080B582B000AF021CFB1D1A70034BFA1D12781A70BD4602B080BDC04681000F4080B500AF024B1B78DBB2181CBD4680BD1B
:403B000061000F4080B500AF024B1B889BB2181CBD4680BDA4100F4080B500AF00F058F8BD4680BD80B500AF054B054A1268802109060A431A6000F017F8BD4680BDC04620
:403B40000000064080B500AF064B1B78002B04D1FFF7E2FF034B01221A70FFF7E3FFBD4680BDC0462C01002080B500AFBD4680BD80B582B000AF7860C046064B1A680F23DD
:403B80001340082BF9D0044B7A681A60BD4602B080BDC046080206404002064080B584B000AF786039600023FB6009E07A68FB68D3181B78181CFFF7DBFFFB680133FB6092
:403BC000FA683B689A42F1D3BD4604B080BDC04680B500AF174B184A1A60184B00221A60174B03221A60174B174A1A60174B07221A60174B00221A60164B03221A60164B63
:403C0000164A1A60164B00221A60164B00221A60154B00221A60154B00221A60144B00221A60144B00221A60134B00221A60BD4680BDC046000006400F00000240000640A5
:403C4000480006400003064007020080040306401003064044000640000206400700008004020640880E0640C80E0640480F0640080F0640C80F0640880F064080B500AFC9
:403C800000F09AF8BD4680BD80B500AF054B054A1268802109060A431A6000F017F8BD4680BDC0460000074080B500AF064B1B78002B04D1FFF7E2FF034B01221A70FFF7B2
:403CC000E3FFBD4680BDC0463401002080B500AF0B20FFF773FABD4680BDC04680B582B000AF00237B600E4B1A680E4B1B689A4211D00C4B1B6801333B603B680D2B01D1B1
:403D000000233B60084A3B68D3181B78DBB27B60044B3A681A607B68181CBD4602B080BD8C010020840100209001002080B582B000AF0C4B1B683B600B4B1B683A689A4291
:403D400005D3094B1B683A68D31A7B6005E0064B1B683A68D31A0D337B607B68181CBD4602B080BD8C0100208401002080B582B000AF7860C046064B1A680F231340082BED
:403D8000F9D0044B7A681A60BD4602B080BDC046080207404002074080B582B000AF054B1B687B60034B00221A607B68181CBD4602B080BDC80F074080B500AF214B224A2C
:403DC0001A60224B00221A60214B01221A60214B214A1A60214B07221A60214B00221A60204B01221A60204B1B4A1A601F4B00221A600B20FFF7F8F90B200321FFF78AF99D
:403E00001B4B0B20191CFFF75FF91A4B00221A60194B00221A60194B00221A60184B00221A60184B04221A60174B00221A60174B00221A60164B00221A60164B00221A7065
:403E4000BD4680BD000007400B000002400007404800074000030740070000800403074010030740440007400002074004020740013F0000880E0740C80E0740480F074026
:403E8000080F0740C80F0740880F07408C010020840100208801002080B584B000AFFFF77BFF031CBB60FFF741FF031C002B07D0104BBA681A60FFF711FF031CFB6005E038
:403EC0000D4B1B68FB600B4BBA681A600B4B1A68D8239B0013407B60084BD82292001A607B681B02FA681343FB60FB68181CBD4604B080BDC80F074040030740C00F074049
:403F000080B582B000AF1B4B1B68002B02D0194B1B689847184B1A680423134026D01DE0164B1B683B60164B1B6801337B607B680D2B01D100237B60124B1B687A689A4272
:403F400003D1114B20221A7008E03B68DAB20F497B68CB181A700A4B7A681A600C4B1A680F231340DCD10B4B04221A60BD4602B080BDC04638010020CC0F074040030740D7
:403F80008C01002084010020880100209001002008030740C00F074070B50E4B0E4D0024ED1AAD101E1CAC4204D0A300F35898470134F8E700F0F0F9084B094D0024ED1AA2
:403FC000AD101E1CAC4204D0A300F35898470134F8E770BDA4430000A4430000A4430000AC43000010B50023934203D0CC5CC4540133F9E710BD031C8218934202D01970BC
:404000000133FAE77047000000000000F61A0000361A0000C81A0000D81A0000F61A00000A1B0000121B00001A1B0000221B00002A1B00001C230000962200001C23000031
:40404000BC220000E4220000302300003823000040230000482300006023000000C0A80101FFFFFF000008DCFFFFFFC0A801FE000200FF00FE01000000000000C0A8010144
:40408000698700000A090000255809000400000080300F40000200330F40000100400F400004000000300F4018430000800080320F4098420000800002000F4019300F40BE
:4040C00033310F4023320F4053330F4007400F400C410F4005430F4002600F40810D830F86028D0396029C109E049F01A410A608AB02AE0DB010B201B402B60CB703B80233
:40410000BE10D280D405D804D904DB04DC33DD30DF01004A05040A190B400C080D4010121101132016201740185019801A011D0C1E481F40226026402E202F043260368021
:40414000392A3E404004410548444A024B045006512052405E885F0160106120624077408B40C02DC2AFC4AFCA20CC1CCE17D007D20CD6D0D80EE680140816071A01200A4C
:404180002204240C26033004340336083E414030410249FF4AFF4BFF4DA04F045018540958045A045B045C015D135F01604062C06440654066C068C06AC06CC06EC0008A18
:4041C000030808040A190B400D040E0813A215021708180419021B081D401E482008211522042348280429803020318032043301380839213B4041084508460448084B0943
:404200005008514052845D225E405F0462206540682169016A106BA17180730280048120881089808E04900892019304940495AB9618974999809C109F20A040A108A220EA
:40424000A40DA680A708B602B708C00FC26FC43BCA0CCC0FCE0FD062D204D6F0D814E24CEA10EC100C085F0260208A40C220D680D840512056405A40824085208C209A4039
:404280009C20B408B702D4E0E23019011F0281018702C60C100A1101041A80000A82100001C100386033004407183802809C040356180902041A0000840000000000000021
:4042C000840200188418000080137FE0800F000008000028000011003006000000D1000217FFFFFF00AF0F04180000000000022404040404111300014000C0004040C00030
:40430000C000C000C000C000000000000000000000000000000000004D33804C12496496005500AA02000D00010032008D0040007202080D10E06000CD000000CD0000005B
:40434000CD000000000080000F008000000F70F000808220000004006304200005BEFDDC3FFFFFFF2200F008040000004000000004040404111100010000C00040011011BA
:40438000C00100114001400100000000000000000000000000000000F8B5C046F8BC08BC9E467047911300007D2C0000F8B5C046F8BC08BC9E46704769130000D043000041
:4043C000D000002020000000B00000000000000000000000DC050000C0F1FF0F00366E01C05D0000180000000000E02E000000000000000000000000000000000000000075
:40440000000000000000000000000000000000000000000000000000000000000000000000000000000000000000000000000000000000000000000000000000000000007C
:40444000000000000000000000000000000000000000000000000000000000000000000000000000000000000000000000000000000000000000000000000000000000003C
:4044800000000000000000000000000000000000000000000000000000000000000000000000000000000000000000000000000000000000000000000000000000000000FC
:4044C00000000000000000000000000000000000000000000000000000000000000000000000000000000000000000000000000000000000000000000000000000000000BC
:407FC000EA110F00001D0000000035000000000000000100000000000000000000000000000000000000000000000000000000000000000000000000000000000000000024
:0200000490303A
:02000000C465D5
:0200000490402A
:20000000FFFF010000000000000000000000000000000000000000000000000000000000E1
:0200000490501A
:0C000000000204C81193110004DDD5F8C3
:0200000490600A
:0100000001FE
:00000001FF